:100000000C9434000C9451000C9451000C94510049
:100010000C9451000C9451000C9451000C9451001C
:100020000C9451000C9451000C9451000C9451000C
:100030000C9451000C9451000C9451000C945100FC
:100040000C9451000C9451000C9451000C945100EC
:100050000C9451000C9451000C9451000C945100DC
:100060000C9451000C94510011241FBECFEFD8E026
:10007000DEBFCDBF11E0A0E0B1E0EAEDF2E002C0EA
:1000800005900D92A632B107D9F721E0A6E2B1E0C2
:1000900001C01D92AF32B207E1F70E94F6000C9446
:1000A0006B010C9400008AB188668AB9219A84B5E4
:1000B000806884BD84B5806284BD84B5836084BD5E
:1000C00085B5816085BD17BC18BC16BCE0EBF0E0BF
:1000D000808180628083808183608083E1EBF0E0B7
:1000E0008081816080831092B4001092B200E0E8B9
:1000F000F0E080818068808380818160808380815E
:1001000088608083E1E8F0E08081816080831092E4
:100110008800109289001092850010928400089542
:100120001092C5008CE08093C40088E18093C100E8
:1001300086E08093C20008959091C00095FFFCCFA7
:100140008093C6000895CF93DF93EC0189918823B3
:1001500019F00E949C00FACFDF91CF910895809111
:10016000C00087FFFCCF8091C60008950F931F93B6
:10017000CF93DF938C010E94AF00833739F4E801FD
:1001800089930E94AF0089938536D9F7DF91CF918B
:100190001F910F910895FB01EE0FFF1F6E0F7F1F40
:1001A000FC01E60FF71F2181022E000C330B2053B8
:1001B000310944E6429FC001439F900D11242281E2
:1001C000022E000C330B205331096AE0629FA0011C
:1001D000639F500D1124840F951F2381022E000C64
:1001E000330B20533109820F931F08950E94900012
:1001F0000E9453002FE78AE196E021508040904012
:10020000E1F700C0000081E090E090932801809326
:10021000270190932E0180932D0190932A018093C2
:10022000290190932C0180932B0180912601882332
:1002300071F08FE091E00E94A3008AE00E949C0090
:1002400080E091E00E94A3008AE00E949C0080E090
:1002500091E00E94B60060E070E080E091E00E94D2
:10026000CB00C82F809327019093280161E070E0B4
:1002700080E091E00E94CB0090932E0180932D01AD
:1002800062E070E080E091E00E94CB0090932A0150
:100290008093290163E070E080E091E00E94CB0050
:1002A00090932C0180932B01C093B40080912D0179
:1002B00088BD8091290187BD80912B0190912C01EF
:1002C000909389008093880081EE94E00197F1F784
:0A02D00000C00000AACFF894FFCF91
:1002DA006E6F7420776F726B696E6779657400440C
:1002EA00726F6E654472697665723A2052756E6EE7
:0602FA00696E672100009F
:00000001FF
